:04000000FCEF07F01A
:1008000020302E303030410043757272656E7400B6
:100810005065616B0020002D0000000E1E6E000E62
:100820001D6E000E206E000E1F6E000E1C6E000E60
:100830001B6E000E1A6E000E196E000E806E000EFA
:10084000816E000E826E010E926E010E936E99EC17
:1008500006F03BEC08F0C2801A501910D8A401D061
:1008600001D09AD012EC08F0080E096E080E086E3E
:100870007AEC07F01DEC08F0080E096E000E086E09
:100880007AEC07F081D0F8EC06F009C01DF00AC040
:100890001EF0000E1D5C020E1E58D8A001D001D023
:1008A0002DD0000E1D24016EFE0E1E20026E000EC5
:1008B000046E190E036EDDEC07F001C01FF002C0DC
:1008C00020F0176E400E066E175028EC08F0080E48
:1008D000096E170E086E7AEC07F0176E410E066E61
:1008E000175028EC08F0176E050E096E17501FC040
:1008F0000AF020C00BF080EC05F035D01DC017F0D9
:100900001EC018F0171E181E174A182A000E1724AA
:10091000016E020E1820026E000E046E190E036E98
:10092000DDEC07F001C01FF002C020F0176E400E92
:10093000066E175028EC08F0080E096E150E086EAA
:100940007AEC07F0176E410E066E175028EC08F08F
:10095000176E050E096E17501FC00AF020C00BF06D
:1009600080EC05F000D081B001D001D00DD001D0D5
:1009700000D081A001D001D0FCD700D0000E1A6EAB
:10098000010E196E01D000D01A501910D8B401D040
:1009900001D079D701D000D019041A10D8A401D001
:1009A00001D05AD712EC08F0080E096E100E086E2E
:1009B0007AEC07F01DEC08F0080E096E000E086EC8
:1009C0007AEC07F0000E1C6E000E1B6E8DD0F8EC5A
:1009D00006F009C01DF00AC01EF0000E1D5C020EDC
:1009E0001E58D8A001D001D033D0000E1D24016EB6
:1009F000FE0E1E20026E000E046E190E036EDDEC5C
:100A000007F001C01FF002C020F01F501B5C2050F7
:100A10001C58D8A001D001D005D01BC01FF01CC0AD
:100A200020F005D01FC01BF020C01CF000D0176EB6
:100A3000410E066E175028EC08F0176E050E096E71
:100A400017501FC00AF020C00BF080EC05F03BD01F
:100A50001DC017F01EC018F0171E181E174A182ABE
:100A6000000E1724016E020E1820026E000E046E96
:100A7000190E036EDDEC07F001C01FF002C020F07C
:100A80001F501B5C20501C58D8A001D001D005D0AD
:100A90001BC01FF01CC020F005D01FC01BF020C0E1
:100AA0001CF000D0176E410E066E175028EC08F0AF
:100AB000176E050E096E17501FC00AF020C00BF00C
:100AC00080EC05F000D081B001D001D00DD001D074
:100AD00000D081A001D001D0FCD700D0000E1A6E4A
:100AE000000E196E01D000D01A501910D8A401D0F0
:100AF00001D06DD7B1D6B0D6AFD6AED600EF00F0EC
:100B000020EE21F010EE0DF00A0EDECFE6FFE82E0B
:100B1000FCD70AC001F00BC002F0270E046E100EC5
:100B2000036E44EC07F001C015F002C016F00AC0D5
:100B300001F00BC002F0270E046E100E036EAFEC36
:100B400007F001C013F002C014F013C001F014C08C
:100B500002F0030E046EE80E036EAFEC07F001C066
:100B600011F002C012F013C001F014C002F0030E25
:100B7000046EE80E036E44EC07F001C013F002C0EF
:100B800014F011C001F012C002F0000E046E640EE9
:100B9000036EAFEC07F001C00FF002C010F011C0FF
:100BA00001F012C002F0000E046E640E036E44ECFD
:100BB00007F001C011F002C012F00FC001F010C028
:100BC00002F0000E046E0A0E036EAFEC07F001C0D7
:100BD0000DF002C00EF00FC001F010C002F0000EC8
:100BE000046E0A0E036E44EC07F001C00FF002C061
:100BF00010F0050E096401D001D005D00C6E050E71
:100C0000096E0C5000D01350300F066E32EC08F015
:100C10000C6E430E066E0C5028EC08F01150300F8D
:100C2000066E32EC08F00F50300F066E32EC08F012
:100C30000D50300F066E32EC08F01200046E000EFC
:100C4000056E045081CF05F02B04D8A401D001D04B
:100C500049D002C001F048EC08F00350F00B016EDF
:100C60004EEC08F0046E000E016E045042EC08F0E9
:100C70000D0E046EFB0EE82EFED7042EFCD700D01E
:100C8000046E010E016E045042EC08F0070E046E73
:100C90007D0EE82EFED7042EFCD702C001F048ECF2
:100CA00008F00338F00B016E4EEC08F0046E000EF5
:100CB000016E045042EC08F00D0E046EFB0EE82E9F
:100CC000FED7042EFCD700D0046E010E016E045036
:100CD00042EC08F0070E046E7D0EE82EFED7042EBF
:100CE000FCD724D002C001F048EC08F003C001F0AA
:100CF0004EEC08F0046E000E016E045042EC08F059
:100D00000D0E046EFB0EE82EFED7042EFCD700D08D
:100D1000046E010E016E045042EC08F0070E046EE2
:100D20007D0EE82EFED7042EFCD700D005C081FF33
:100D30001200086E010E016E085042EC08F0620EBF
:100D4000086E650EE82EFED7082EFCD700D0086E80
:100D5000000E2B6E0850086E000E026E0850096ED1
:100D6000380E036E09501EEC06F0086E000E026E7F
:100D70000850096E380E036E09501EEC06F0086E1E
:100D8000000E026E0850096E380E036E09501EECFC
:100D900006F0086E000E026E0850096E280E036EF3
:100DA00009501EEC06F0086E010E2B6E0850086EFE
:100DB000000E026E0850096E280E036E09501EECDC
:100DC00006F0086E000E026E0850096E060E036EE5
:100DD00009501EEC06F0086E000E026E0850096EF7
:100DE0000C0E036E09501EEC06F012EC08F0120017
:100DF000000E106E000E0F6E000E0E6E000E0D6EC9
:100E0000000E0C6E000E0B6E0A0E0B5C000E0C58E2
:100E1000D8A001D001D002D023D022D0C28200D0ED
:100E2000C2B201D001D0FCD7C4CF0FF0106A0F506E
:100E3000106E0F6A0F50C3100F6E1050106E0F50CF
:100E40000D240D6E10500E200E6E0B4A0C2A0A0E49
:100E50000B5C000E0C58D8A001D001D0DFD700D019
:100E60000DC001F00EC002F0000E046E0A0E036EFB
:100E700044EC07F001C00DF002C00EF00DC009F007
:100E80000EC00AF000D01200000E076E000E066EB3
:100E900004500310D8B401D001D027D0056E010E44
:100EA000086E055005D0D89003360436082A00D0C5
:100EB00004AE01D001D0F7D701D000D0D8900636CB
:100EC00007360350015C04500258D8A001D001D06D
:100ED00006D00350015E0450025A068000D0D8901C
:100EE00004320332082EEAD700D006C001F007C052
:100EF00002F0120027D008C0F6FF09C0F7FF080073
:100F0000F5500A0AD8B401D001D00CD008C0F6FFC1
:100F100009C0F7FF0800F5500D0AD8A401D001D090
:100F200004D000D01DEC08F00AD008C0F6FF09C0BC
:100F3000F7FF0800F5CF06F032EC08F000D0084AC1
:100F4000092A00D008C0F6FF09C0F7FF0800F550D5
:100F50000009D8A401D001D0CED700D0120004508F
:100F60000310D8B401D001D023D0056E010E066E57
:100F7000055005D0D89003360436062A00D004AEBA
:100F800001D001D0F7D701D000D00350015C04504C
:100F90000258D8A001D001D005D00350015E045002
:100FA000025A00D0D89004320332062EEED700D079
:100FB00001C001F002C002F01200000E066E000E29
:100FC000056E00D001A001D001D005D00350052648
:100FD0000450062200D0D89003360436D89002324E
:100FE000013202500110D8A401D001D0EBD705C0C6
:100FF00001F006C002F0120000EE21F00A0EEE6AC7
:10100000E806FDE1A60EF66E100EF76E000EF86E05
:101010000900F5CF2BF0000EF86E080EF76E0001F8
:101020000DEF04F0066E000E026E0650076E010E04
:10103000036E07501EEC06F01200066E000E026EE4
:101040000650076EC00E036E07501EEC06F012002D
:10105000076E000E026E075006508009036E1EECEC
:1010600006F01200076E010E026E075006C003F074
:101070001EEC06F012000E0EC16EAA0EC06E000E1F
:10108000C26E120001B002D0819601D0818612009A
:1010900001B002D0819401D08184120081500F0BE5
:0810A0000110816E1200010035
:020000040030CA
:08000000000C1F1EFF8181FFAF
:00000001FF
